{
  "contractName": "StructStorage",
  "abi": [
    {
      "constant": true,
      "inputs": [],
      "name": "c",
      "outputs": [
        {
          "internalType": "uint256",
          "name": "",
          "type": "uint256"
        }
      ],
      "payable": false,
      "stateMutability": "view",
      "type": "function"
    },
    {
      "constant": true,
      "inputs": [
        {
          "internalType": "uint256",
          "name": "",
          "type": "uint256"
        }
      ],
      "name": "fm",
      "outputs": [
        {
          "internalType": "bytes",
          "name": "fid",
          "type": "bytes"
        },
        {
          "internalType": "bytes32",
          "name": "fname",
          "type": "bytes32"
        },
        {
          "internalType": "bytes32",
          "name": "loc",
          "type": "bytes32"
        },
        {
          "internalType": "bytes32",
          "name": "crop",
          "type": "bytes32"
        },
        {
          "internalType": "uint256",
          "name": "contact",
          "type": "uint256"
        },
        {
          "internalType": "uint256",
          "name": "quantity",
          "type": "uint256"
        },
        {
          "internalType": "uint256",
          "name": "exprice",
          "type": "uint256"
        }
      ],
      "payable": false,
      "stateMutability": "view",
      "type": "function"
    },
    {
      "constant": true,
      "inputs": [
        {
          "internalType": "uint256",
          "name": "",
          "type": "uint256"
        }
      ],
      "name": "l",
      "outputs": [
        {
          "internalType": "bytes",
          "name": "lotno",
          "type": "bytes"
        },
        {
          "internalType": "bytes",
          "name": "grade",
          "type": "bytes"
        },
        {
          "internalType": "uint256",
          "name": "mrp",
          "type": "uint256"
        },
        {
          "internalType": "bytes32",
          "name": "testdate",
          "type": "bytes32"
        },
        {
          "internalType": "bytes32",
          "name": "expdate",
          "type": "bytes32"
        }
      ],
      "payable": false,
      "stateMutability": "view",
      "type": "function"
    },
    {
      "constant": true,
      "inputs": [],
      "name": "s",
      "outputs": [
        {
          "internalType": "uint256",
          "name": "",
          "type": "uint256"
        }
      ],
      "payable": false,
      "stateMutability": "view",
      "type": "function"
    },
    {
      "constant": true,
      "inputs": [],
      "name": "t",
      "outputs": [
        {
          "internalType": "uint256",
          "name": "",
          "type": "uint256"
        }
      ],
      "payable": false,
      "stateMutability": "view",
      "type": "function"
    },
    {
      "constant": true,
      "inputs": [],
      "name": "tester",
      "outputs": [
        {
          "internalType": "address",
          "name": "",
          "type": "address"
        }
      ],
      "payable": false,
      "stateMutability": "view",
      "type": "function"
    },
    {
      "constant": false,
      "inputs": [
        {
          "internalType": "address",
          "name": "addr",
          "type": "address"
        }
      ],
      "name": "fundaddr",
      "outputs": [],
      "payable": false,
      "stateMutability": "nonpayable",
      "type": "function"
    },
    {
      "constant": false,
      "inputs": [
        {
          "internalType": "address",
          "name": "receiver",
          "type": "address"
        },
        {
          "internalType": "uint256",
          "name": "amount",
          "type": "uint256"
        },
        {
          "internalType": "address",
          "name": "sender",
          "type": "address"
        }
      ],
      "name": "sendCoin",
      "outputs": [
        {
          "internalType": "bool",
          "name": "sufficient",
          "type": "bool"
        }
      ],
      "payable": false,
      "stateMutability": "nonpayable",
      "type": "function"
    },
    {
      "constant": true,
      "inputs": [
        {
          "internalType": "address",
          "name": "addr",
          "type": "address"
        }
      ],
      "name": "getBalance",
      "outputs": [
        {
          "internalType": "uint256",
          "name": "",
          "type": "uint256"
        }
      ],
      "payable": false,
      "stateMutability": "view",
      "type": "function"
    },
    {
      "constant": false,
      "inputs": [
        {
          "internalType": "bytes",
          "name": "id",
          "type": "bytes"
        },
        {
          "internalType": "bytes32",
          "name": "name",
          "type": "bytes32"
        },
        {
          "internalType": "bytes32",
          "name": "loc",
          "type": "bytes32"
        },
        {
          "internalType": "bytes32",
          "name": "cr",
          "type": "bytes32"
        },
        {
          "internalType": "uint256",
          "name": "con",
          "type": "uint256"
        },
        {
          "internalType": "uint256",
          "name": "q",
          "type": "uint256"
        },
        {
          "internalType": "uint256",
          "name": "pr",
          "type": "uint256"
        }
      ],
      "name": "produce",
      "outputs": [],
      "payable": false,
      "stateMutability": "nonpayable",
      "type": "function"
    },
    {
      "constant": true,
      "inputs": [
        {
          "internalType": "bytes",
          "name": "j",
          "type": "bytes"
        }
      ],
      "name": "getproduce",
      "outputs": [
        {
          "internalType": "bytes",
          "name": "",
          "type": "bytes"
        },
        {
          "internalType": "bytes32",
          "name": "",
          "type": "bytes32"
        },
        {
          "internalType": "bytes32",
          "name": "",
          "type": "bytes32"
        },
        {
          "internalType": "bytes32",
          "name": "",
          "type": "bytes32"
        },
        {
          "internalType": "uint256",
          "name": "",
          "type": "uint256"
        },
        {
          "internalType": "uint256",
          "name": "",
          "type": "uint256"
        },
        {
          "internalType": "uint256",
          "name": "",
          "type": "uint256"
        }
      ],
      "payable": false,
      "stateMutability": "view",
      "type": "function"
    },
    {
      "constant": false,
      "inputs": [
        {
          "internalType": "bytes",
          "name": "ll",
          "type": "bytes"
        },
        {
          "internalType": "bytes",
          "name": "g",
          "type": "bytes"
        },
        {
          "internalType": "uint256",
          "name": "p",
          "type": "uint256"
        },
        {
          "internalType": "bytes32",
          "name": "tt",
          "type": "bytes32"
        },
        {
          "internalType": "bytes32",
          "name": "e",
          "type": "bytes32"
        }
      ],
      "name": "quality",
      "outputs": [],
      "payable": false,
      "stateMutability": "nonpayable",
      "type": "function"
    },
    {
      "constant": true,
      "inputs": [
        {
          "internalType": "bytes",
          "name": "k",
          "type": "bytes"
        }
      ],
      "name": "getquality",
      "outputs": [
        {
          "internalType": "bytes",
          "name": "",
          "type": "bytes"
        },
        {
          "internalType": "bytes",
          "name": "",
          "type": "bytes"
        },
        {
          "internalType": "uint256",
          "name": "",
          "type": "uint256"
        },
        {
          "internalType": "bytes32",
          "name": "",
          "type": "bytes32"
        },
        {
          "internalType": "bytes32",
          "name": "",
          "type": "bytes32"
        }
      ],
      "payable": false,
      "stateMutability": "view",
      "type": "function"
    }
  ],
  "bytecode": "0x60806040526001600055600160025534801561001a57600080fd5b506119eb8061002a6000396000f3fe608060405234801561001057600080fd5b50600436106100cf5760003560e01c80638308abd41161008c578063b81e3a5011610066578063b81e3a50146108cd578063c3da42b814610953578063f8b2cb4f14610971578063fb5ade31146109c9576100cf565b80638308abd41461084757806386b714e21461089157806392d0d153146108af576100cf565b806304eb580c146100d457806307467a02146102445780632c6d8fa7146103155780635487e06e1461047357806354bb13611461056a5780635ef53ded14610692575b600080fd5b610242600480360360a08110156100ea57600080fd5b810190808035906020019064010000000081111561010757600080fd5b82018360208201111561011957600080fd5b8035906020019184600183028401116401000000008311171561013b57600080fd5b91908080601f016020809104026020016040519081016040528093929190818152602001838380828437600081840152601f19601f8201169050808301925050505050505091929192908035906020019064010000000081111561019e57600080fd5b8201836020820111156101b057600080fd5b803590602001918460018302840111640100000000831117156101d257600080fd5b91908080601f016020809104026020016040519081016040528093929190818152602001838380828437600081840152601f19601f820116905080830192505050505050509192919290803590602001909291908035906020019092919080359060200190929190505050610a0d565b005b6102706004803603602081101561025a57600080fd5b8101908080359060200190929190505050610ba6565b6040518080602001888152602001878152602001868152602001858152602001848152602001838152602001828103825289818151815260200191508051906020019080838360005b838110156102d45780820151818401526020810190506102b9565b50505050905090810190601f1680156103015780820380516001836020036101000a031916815260200191505b509850505050505050505060405180910390f35b6103ce6004803603602081101561032b57600080fd5b810190808035906020019064010000000081111561034857600080fd5b82018360208201111561035a57600080fd5b8035906020019184600183028401116401000000008311171561037c57600080fd5b91908080601f016020809104026020016040519081016040528093929190818152602001838380828437600081840152601f19601f820116905080830192505050505050509192919290505050610c8d565b6040518080602001888152602001878152602001868152602001858152602001848152602001838152602001828103825289818151815260200191508051906020019080838360005b83811015610432578082015181840152602081019050610417565b50505050905090810190601f16801561045f5780820380516001836020036101000a031916815260200191505b509850505050505050505060405180910390f35b610568600480360360e081101561048957600080fd5b81019080803590602001906401000000008111156104a657600080fd5b8201836020820111156104b857600080fd5b803590602001918460018302840111640100000000831117156104da57600080fd5b91908080601f016020809104026020016040519081016040528093929190818152602001838380828437600081840152601f19601f820116905080830192505050505050509192919290803590602001909291908035906020019092919080359060200190929190803590602001909291908035906020019092919080359060200190929190505050611047565b005b6105966004803603602081101561058057600080fd5b81019080803590602001909291905050506111ef565b604051808060200180602001868152602001858152602001848152602001838103835288818151815260200191508051906020019080838360005b838110156105ec5780820151818401526020810190506105d1565b50505050905090810190601f1680156106195780820380516001836020036101000a031916815260200191505b50838103825287818151815260200191508051906020019080838360005b83811015610652578082015181840152602081019050610637565b50505050905090810190601f16801561067f5780820380516001836020036101000a031916815260200191505b5097505050505050505060405180910390f35b61074b600480360360208110156106a857600080fd5b81019080803590602001906401000000008111156106c557600080fd5b8201836020820111156106d757600080fd5b803590602001918460018302840111640100000000831117156106f957600080fd5b91908080601f016020809104026020016040519081016040528093929190818152602001838380828437600081840152601f19601f820116905080830192505050505050509192919290505050611362565b604051808060200180602001868152602001858152602001848152602001838103835288818151815260200191508051906020019080838360005b838110156107a1578082015181840152602081019050610786565b50505050905090810190601f1680156107ce5780820380516001836020036101000a031916815260200191505b50838103825287818151815260200191508051906020019080838360005b838110156108075780820151818401526020810190506107ec565b50505050905090810190601f1680156108345780820380516001836020036101000a031916815260200191505b5097505050505050505060405180910390f35b61084f6116d4565b604051808273ffffffffffffffffffffffffffffffffffffffff1673ffffffffffffffffffffffffffffffffffffffff16815260200191505060405180910390f35b6108996116fa565b6040518082815260200191505060405180910390f35b6108b7611700565b6040518082815260200191505060405180910390f35b610939600480360360608110156108e357600080fd5b81019080803573ffffffffffffffffffffffffffffffffffffffff16906020019092919080359060200190929190803573ffffffffffffffffffffffffffffffffffffffff169060200190929190505050611706565b604051808215151515815260200191505060405180910390f35b61095b6117fe565b6040518082815260200191505060405180910390f35b6109b36004803603602081101561098757600080fd5b81019080803573ffffffffffffffffffffffffffffffffffffffff169060200190929190505050611804565b6040518082815260200191505060405180910390f35b610a0b600480360360208110156109df57600080fd5b81019080803573ffffffffffffffffffffffffffffffffffffffff16906020019092919050505061184d565b005b610a15611896565b6040518060a00160405280878152602001868152602001858152602001848152602001838152509050806008876040518082805190602001908083835b60208310610a755780518252602082019150602081019050602083039250610a52565b6001836020036101000a03801982511681845116808217855250505050505090500191505090815260200160405180910390206000820151816000019080519060200190610ac49291906118cb565b506020820151816001019080519060200190610ae19291906118cb565b50604082015181600201556060820151816003015560808201518160040155905050600981908060018154018082558091505090600182039060005260206000209060050201600090919290919091506000820151816000019080519060200190610b4d9291906118cb565b506020820151816001019080519060200190610b6a9291906118cb565b50604082015181600201556060820151816003015560808201518160040155505050600260008154809291906001019190505550505050505050565b60078181548110610bb357fe5b9060005260206000209060070201600091509050806000018054600181600116156101000203166002900480601f016020809104026020016040519081016040528092919081815260200182805460018160011615610100020316600290048015610c5f5780601f10610c3457610100808354040283529160200191610c5f565b820191906000526020600020905b815481529060010190602001808311610c4257829003601f168201915b5050505050908060010154908060020154908060030154908060040154908060050154908060060154905087565b60606000806000806000806006886040518082805190602001908083835b60208310610cce5780518252602082019150602081019050602083039250610cab565b6001836020036101000a03801982511681845116808217855250505050505090500191505090815260200160405180910390206000016006896040518082805190602001908083835b60208310610d3a5780518252602082019150602081019050602083039250610d17565b6001836020036101000a03801982511681845116808217855250505050505090500191505090815260200160405180910390206001015460068a6040518082805190602001908083835b60208310610da75780518252602082019150602081019050602083039250610d84565b6001836020036101000a03801982511681845116808217855250505050505090500191505090815260200160405180910390206002015460068b6040518082805190602001908083835b60208310610e145780518252602082019150602081019050602083039250610df1565b6001836020036101000a03801982511681845116808217855250505050505090500191505090815260200160405180910390206003015460068c6040518082805190602001908083835b60208310610e815780518252602082019150602081019050602083039250610e5e565b6001836020036101000a03801982511681845116808217855250505050505090500191505090815260200160405180910390206004015460068d6040518082805190602001908083835b60208310610eee5780518252602082019150602081019050602083039250610ecb565b6001836020036101000a03801982511681845116808217855250505050505090500191505090815260200160405180910390206005015460068e6040518082805190602001908083835b60208310610f5b5780518252602082019150602081019050602083039250610f38565b6001836020036101000a038019825116818451168082178552505050505050905001915050908152602001604051809103902060060154868054600181600116156101000203166002900480601f0160208091040260200160405190810160405280929190818152602001828054600181600116156101000203166002900480156110275780601f10610ffc57610100808354040283529160200191611027565b820191906000526020600020905b81548152906001019060200180831161100a57829003601f168201915b505050505096509650965096509650965096509650919395979092949650565b61104f61194b565b6040518060e00160405280898152602001888152602001878152602001868152602001858152602001848152602001838152509050806006896040518082805190602001908083835b602083106110bb5780518252602082019150602081019050602083039250611098565b6001836020036101000a0380198251168184511680821785525050505050509050019150509081526020016040518091039020600082015181600001908051906020019061110a9291906118cb565b506020820151816001015560408201518160020155606082015181600301556080820151816004015560a0820151816005015560c082015181600601559050506007819080600181540180825580915050906001820390600052602060002090600702016000909192909190915060008201518160000190805190602001906111949291906118cb565b506020820151816001015560408201518160020155606082015181600301556080820151816004015560a0820151816005015560c0820151816006015550505060008081548092919060010191905055505050505050505050565b600981815481106111fc57fe5b9060005260206000209060050201600091509050806000018054600181600116156101000203166002900480601f0160208091040260200160405190810160405280929190818152602001828054600181600116156101000203166002900480156112a85780601f1061127d576101008083540402835291602001916112a8565b820191906000526020600020905b81548152906001019060200180831161128b57829003601f168201915b505050505090806001018054600181600116156101000203166002900480601f0160208091040260200160405190810160405280929190818152602001828054600181600116156101000203166002900480156113465780601f1061131b57610100808354040283529160200191611346565b820191906000526020600020905b81548152906001019060200180831161132957829003601f168201915b5050505050908060020154908060030154908060040154905085565b60608060008060006008866040518082805190602001908083835b602083106113a0578051825260208201915060208101905060208303925061137d565b6001836020036101000a03801982511681845116808217855250505050505090500191505090815260200160405180910390206000016008876040518082805190602001908083835b6020831061140c57805182526020820191506020810190506020830392506113e9565b6001836020036101000a03801982511681845116808217855250505050505090500191505090815260200160405180910390206001016008886040518082805190602001908083835b602083106114785780518252602082019150602081019050602083039250611455565b6001836020036101000a0380198251168184511680821785525050505050509050019150509081526020016040518091039020600201546008896040518082805190602001908083835b602083106114e557805182526020820191506020810190506020830392506114c2565b6001836020036101000a03801982511681845116808217855250505050505090500191505090815260200160405180910390206003015460088a6040518082805190602001908083835b60208310611552578051825260208201915060208101905060208303925061152f565b6001836020036101000a038019825116818451168082178552505050505050905001915050908152602001604051809103902060040154848054600181600116156101000203166002900480601f01602080910402602001604051908101604052809291908181526020018280546001816001161561010002031660029004801561161e5780601f106115f35761010080835404028352916020019161161e565b820191906000526020600020905b81548152906001019060200180831161160157829003601f168201915b50505050509450838054600181600116156101000203166002900480601f0160208091040260200160405190810160405280929190818152602001828054600181600116156101000203166002900480156116ba5780601f1061168f576101008083540402835291602001916116ba565b820191906000526020600020905b81548152906001019060200180831161169d57829003601f168201915b505050505093509450945094509450945091939590929450565b600460009054906101000a900473ffffffffffffffffffffffffffffffffffffffff1681565b60005481565b60025481565b600082600360008473ffffffffffffffffffffffffffffffffffffffff1673ffffffffffffffffffffffffffffffffffffffff16815260200190815260200160002054101561175857600090506117f7565b82600360008473ffffffffffffffffffffffffffffffffffffffff1673ffffffffffffffffffffffffffffffffffffffff1681526020019081526020016000206000828254039250508190555082600360008673ffffffffffffffffffffffffffffffffffffffff1673ffffffffffffffffffffffffffffffffffffffff16815260200190815260200160002060008282540192505081905550600190505b9392505050565b60015481565b6000600360008373ffffffffffffffffffffffffffffffffffffffff1673ffffffffffffffffffffffffffffffffffffffff168152602001908152602001600020549050919050565b6107d0600360008373ffffffffffffffffffffffffffffffffffffffff1673ffffffffffffffffffffffffffffffffffffffff1681526020019081526020016000208190555050565b6040518060a0016040528060608152602001606081526020016000815260200160008019168152602001600080191681525090565b828054600181600116156101000203166002900490600052602060002090601f016020900481019282601f1061190c57805160ff191683800117855561193a565b8280016001018555821561193a579182015b8281111561193957825182559160200191906001019061191e565b5b5090506119479190611991565b5090565b6040518060e00160405280606081526020016000801916815260200160008019168152602001600080191681526020016000815260200160008152602001600081525090565b6119b391905b808211156119af576000816000905550600101611997565b5090565b9056fea265627a7a72315820392c6a9ab89a283dd120fe19067099284ba3ff30a79198be3d290f7356ebabd664736f6c63430005100032",
  "source": "pragma solidity ^0.5.0;\n\ncontract StructStorage {\n\n    uint256 public s = 1; \n    uint256 public c;\n    uint256 public t=1;\n    mapping (address => uint) balances;\n\n    function fundaddr(address addr) public{\n        balances[addr] = 2000;\n    }\n\n        function sendCoin(address receiver, uint amount, address sender) public returns(bool sufficient){\n        \n        \n        if (balances[sender] < amount) \n        return false;\n        \n        balances[sender] -= amount;\n        balances[receiver] += amount;\n        \n                        \n        return true;\n        \n    }\n\n    function getBalance(address addr) view public returns(uint){\n        return balances[addr];\n    }\nstruct farmer {\n   \n    bytes fid;\n    bytes32 fname;\n    bytes32 loc;\n    bytes32 crop;\n    uint256 contact;\n    uint quantity;\n    uint exprice;\n}\n\nstruct lot {\n\n    bytes lotno;\n    bytes grade;\n    uint mrp;\n    bytes32 testdate;\n    bytes32 expdate;\n}\n\naddress public tester;\naddress owner;\n\nmapping (bytes => farmer) f1;\nfarmer[] public fm;\n\nmapping (bytes => lot) l1;\nlot[] public l;\n\n\n\nfunction produce(bytes memory id, bytes32 name, bytes32 loc, bytes32 cr, uint256 con, uint q, uint pr) public{\n               \n        StructStorage.farmer memory fnew = farmer(id,name,loc,cr,con,q,pr);\n        f1[id] = fnew;\n        fm.push(fnew);\n        s++;\n  \n}\n    \n function getproduce(bytes memory j) public view returns(bytes memory,bytes32,bytes32,bytes32,uint256,uint,uint) {\n        return (f1[j].fid,f1[j].fname,f1[j].loc,f1[j].crop,f1[j].contact,f1[j].quantity,f1[j].exprice);\n    }\n function quality(bytes memory ll, bytes memory g, uint256 p, bytes32 tt, bytes32 e) public{\n    \n        StructStorage.lot memory lnew=lot(ll,g,p,tt,e);\n        l1[ll]=lnew;\n        l.push(lnew);\n        t++;\n  \n }  \n function getquality(bytes memory k) public view returns(bytes memory,bytes memory,uint,bytes32,bytes32) {\n     return(l1[k].lotno,l1[k].grade,l1[k].mrp,l1[k].testdate,l1[k].expdate);\n     \n }\n}\n",
  "sourcePath": "/home/hp/Myprojects/Agrochain1/contracts/StructStorage.sol",
  "compiler": {
    "name": "solc",
    "version": "0.5.16+commit.9c3226ce.Emscripten.clang"
  },
  "schemaVersion": "3.4.3",
  "updatedAt": "2021-11-16T19:28:35.049Z",
  "devdoc": {
    "methods": {}
  },
  "userdoc": {
    "methods": {}
  }
}